{
  "_format": "hh-sol-artifact-1",
  "contractName": "Supply_chain",
  "sourceName": "contracts/Supply_chain.sol",
  "abi": [
    {
      "anonymous": false,
      "inputs": [
        {
          "indexed": true,
          "internalType": "address",
          "name": "previousOwner",
          "type": "address"
        },
        {
          "indexed": true,
          "internalType": "address",
          "name": "newOwner",
          "type": "address"
        }
      ],
      "name": "OwnershipTransferred",
      "type": "event"
    },
    {
      "anonymous": false,
      "inputs": [
        {
          "indexed": true,
          "internalType": "uint256",
          "name": "unique_id",
          "type": "uint256"
        },
        {
          "indexed": true,
          "internalType": "address",
          "name": "owner",
          "type": "address"
        }
      ],
      "name": "_Available_to_Distributor",
      "type": "event"
    },
    {
      "anonymous": false,
      "inputs": [
        {
          "indexed": true,
          "internalType": "uint256",
          "name": "unique_id",
          "type": "uint256"
        },
        {
          "indexed": true,
          "internalType": "address",
          "name": "owner",
          "type": "address"
        }
      ],
      "name": "_Exhibited",
      "type": "event"
    },
    {
      "anonymous": false,
      "inputs": [
        {
          "indexed": true,
          "internalType": "uint256",
          "name": "unique_id",
          "type": "uint256"
        },
        {
          "indexed": false,
          "internalType": "address",
          "name": "owner",
          "type": "address"
        }
      ],
      "name": "_Manufactured",
      "type": "event"
    },
    {
      "anonymous": false,
      "inputs": [
        {
          "indexed": true,
          "internalType": "uint256",
          "name": "unique_id",
          "type": "uint256"
        },
        {
          "indexed": true,
          "internalType": "address",
          "name": "from",
          "type": "address"
        },
        {
          "indexed": true,
          "internalType": "address",
          "name": "to",
          "type": "address"
        }
      ],
      "name": "_Sold_to_Consumer",
      "type": "event"
    },
    {
      "anonymous": false,
      "inputs": [
        {
          "indexed": true,
          "internalType": "uint256",
          "name": "unique_id",
          "type": "uint256"
        },
        {
          "indexed": true,
          "internalType": "address",
          "name": "from",
          "type": "address"
        },
        {
          "indexed": true,
          "internalType": "address",
          "name": "to",
          "type": "address"
        }
      ],
      "name": "_Sold_to_Distributor",
      "type": "event"
    },
    {
      "anonymous": false,
      "inputs": [
        {
          "indexed": true,
          "internalType": "uint256",
          "name": "unique_id",
          "type": "uint256"
        },
        {
          "indexed": true,
          "internalType": "address",
          "name": "from",
          "type": "address"
        },
        {
          "indexed": true,
          "internalType": "address",
          "name": "to",
          "type": "address"
        }
      ],
      "name": "_Sold_to_Retailer",
      "type": "event"
    },
    {
      "anonymous": false,
      "inputs": [
        {
          "indexed": false,
          "internalType": "address",
          "name": "_address",
          "type": "address"
        },
        {
          "indexed": false,
          "internalType": "string",
          "name": "message",
          "type": "string"
        }
      ],
      "name": "_addConsumer",
      "type": "event"
    },
    {
      "anonymous": false,
      "inputs": [
        {
          "indexed": false,
          "internalType": "address",
          "name": "_address",
          "type": "address"
        },
        {
          "indexed": false,
          "internalType": "string",
          "name": "_message",
          "type": "string"
        }
      ],
      "name": "_addDistributor",
      "type": "event"
    },
    {
      "anonymous": false,
      "inputs": [
        {
          "indexed": false,
          "internalType": "address",
          "name": "_address",
          "type": "address"
        },
        {
          "indexed": false,
          "internalType": "string",
          "name": "_message",
          "type": "string"
        }
      ],
      "name": "_addFarmer",
      "type": "event"
    },
    {
      "anonymous": false,
      "inputs": [
        {
          "indexed": false,
          "internalType": "address",
          "name": "_address",
          "type": "address"
        },
        {
          "indexed": false,
          "internalType": "string",
          "name": "message",
          "type": "string"
        }
      ],
      "name": "_addRetailer",
      "type": "event"
    },
    {
      "anonymous": false,
      "inputs": [
        {
          "indexed": false,
          "internalType": "address",
          "name": "_address",
          "type": "address"
        },
        {
          "indexed": false,
          "internalType": "string",
          "name": "_message",
          "type": "string"
        }
      ],
      "name": "_removeConsumer",
      "type": "event"
    },
    {
      "anonymous": false,
      "inputs": [
        {
          "indexed": false,
          "internalType": "address",
          "name": "_address",
          "type": "address"
        },
        {
          "indexed": false,
          "internalType": "string",
          "name": "_message",
          "type": "string"
        }
      ],
      "name": "_removeDistributor",
      "type": "event"
    },
    {
      "anonymous": false,
      "inputs": [
        {
          "indexed": false,
          "internalType": "address",
          "name": "_address",
          "type": "address"
        },
        {
          "indexed": false,
          "internalType": "string",
          "name": "_message",
          "type": "string"
        }
      ],
      "name": "_removeFarmer",
      "type": "event"
    },
    {
      "anonymous": false,
      "inputs": [
        {
          "indexed": false,
          "internalType": "address",
          "name": "_address",
          "type": "address"
        },
        {
          "indexed": false,
          "internalType": "string",
          "name": "message",
          "type": "string"
        }
      ],
      "name": "_removeRetailer",
      "type": "event"
    },
    {
      "anonymous": false,
      "inputs": [
        {
          "indexed": false,
          "internalType": "address",
          "name": "_address",
          "type": "address"
        },
        {
          "indexed": false,
          "internalType": "string",
          "name": "_message",
          "type": "string"
        }
      ],
      "name": "_renounceDistributor",
      "type": "event"
    },
    {
      "anonymous": false,
      "inputs": [
        {
          "indexed": false,
          "internalType": "address",
          "name": "_address",
          "type": "address"
        },
        {
          "indexed": false,
          "internalType": "string",
          "name": "_message",
          "type": "string"
        }
      ],
      "name": "_renounceFarmer",
      "type": "event"
    },
    {
      "anonymous": false,
      "inputs": [
        {
          "indexed": false,
          "internalType": "address",
          "name": "_address",
          "type": "address"
        },
        {
          "indexed": false,
          "internalType": "string",
          "name": "message",
          "type": "string"
        }
      ],
      "name": "_renounceRetailer",
      "type": "event"
    },
    {
      "inputs": [],
      "name": "addConsumer",
      "outputs": [],
      "stateMutability": "nonpayable",
      "type": "function"
    },
    {
      "inputs": [
        {
          "internalType": "address",
          "name": "_address",
          "type": "address"
        },
        {
          "internalType": "string",
          "name": "_name",
          "type": "string"
        }
      ],
      "name": "addDistributor",
      "outputs": [],
      "stateMutability": "nonpayable",
      "type": "function"
    },
    {
      "inputs": [
        {
          "internalType": "string",
          "name": "_name",
          "type": "string"
        }
      ],
      "name": "addDistributor_signup",
      "outputs": [],
      "stateMutability": "nonpayable",
      "type": "function"
    },
    {
      "inputs": [
        {
          "internalType": "address",
          "name": "_address",
          "type": "address"
        },
        {
          "internalType": "string",
          "name": "_name",
          "type": "string"
        },
        {
          "internalType": "string",
          "name": "_seat",
          "type": "string"
        }
      ],
      "name": "addFarmer",
      "outputs": [],
      "stateMutability": "nonpayable",
      "type": "function"
    },
    {
      "inputs": [
        {
          "internalType": "string",
          "name": "_name",
          "type": "string"
        },
        {
          "internalType": "string",
          "name": "_seat",
          "type": "string"
        }
      ],
      "name": "addFarmer_signup",
      "outputs": [],
      "stateMutability": "nonpayable",
      "type": "function"
    },
    {
      "inputs": [
        {
          "internalType": "address",
          "name": "_address",
          "type": "address"
        },
        {
          "internalType": "string",
          "name": "_name",
          "type": "string"
        },
        {
          "internalType": "string",
          "name": "_seat",
          "type": "string"
        }
      ],
      "name": "addRetailer",
      "outputs": [],
      "stateMutability": "nonpayable",
      "type": "function"
    },
    {
      "inputs": [
        {
          "internalType": "string",
          "name": "_name",
          "type": "string"
        },
        {
          "internalType": "string",
          "name": "_seat",
          "type": "string"
        }
      ],
      "name": "addRetailer_signup",
      "outputs": [],
      "stateMutability": "nonpayable",
      "type": "function"
    },
    {
      "inputs": [
        {
          "internalType": "uint256",
          "name": "_unique_id",
          "type": "uint256"
        },
        {
          "internalType": "uint256",
          "name": "_new_price",
          "type": "uint256"
        }
      ],
      "name": "available_d",
      "outputs": [],
      "stateMutability": "nonpayable",
      "type": "function"
    },
    {
      "inputs": [
        {
          "internalType": "uint32",
          "name": "_weight",
          "type": "uint32"
        },
        {
          "internalType": "uint256",
          "name": "_unique_id",
          "type": "uint256"
        },
        {
          "internalType": "uint256",
          "name": "price_tobe_paid",
          "type": "uint256"
        }
      ],
      "name": "buy_D_product",
      "outputs": [],
      "stateMutability": "payable",
      "type": "function"
    },
    {
      "inputs": [
        {
          "internalType": "uint32",
          "name": "_weight",
          "type": "uint32"
        },
        {
          "internalType": "uint256",
          "name": "_unique_id",
          "type": "uint256"
        },
        {
          "internalType": "uint256",
          "name": "price_tobe_paid",
          "type": "uint256"
        },
        {
          "internalType": "string",
          "name": "_name_distributor",
          "type": "string"
        }
      ],
      "name": "buy_R_product",
      "outputs": [],
      "stateMutability": "payable",
      "type": "function"
    },
    {
      "inputs": [
        {
          "internalType": "uint32",
          "name": "_weight",
          "type": "uint32"
        },
        {
          "internalType": "uint256",
          "name": "_price",
          "type": "uint256"
        },
        {
          "internalType": "string",
          "name": "_product_name",
          "type": "string"
        }
      ],
      "name": "createProduct",
      "outputs": [],
      "stateMutability": "nonpayable",
      "type": "function"
    },
    {
      "inputs": [],
      "name": "destruct",
      "outputs": [],
      "stateMutability": "nonpayable",
      "type": "function"
    },
    {
      "inputs": [
        {
          "internalType": "uint32",
          "name": "_weight",
          "type": "uint32"
        },
        {
          "internalType": "uint256",
          "name": "_unique_id",
          "type": "uint256"
        },
        {
          "internalType": "uint256",
          "name": "price_tobe_paid",
          "type": "uint256"
        },
        {
          "internalType": "string",
          "name": "_name_retailer",
          "type": "string"
        }
      ],
      "name": "final_buy",
      "outputs": [],
      "stateMutability": "payable",
      "type": "function"
    },
    {
      "inputs": [
        {
          "internalType": "address",
          "name": "_address",
          "type": "address"
        }
      ],
      "name": "isConsumer",
      "outputs": [
        {
          "internalType": "bool",
          "name": "",
          "type": "bool"
        }
      ],
      "stateMutability": "view",
      "type": "function"
    },
    {
      "inputs": [
        {
          "internalType": "address",
          "name": "_address",
          "type": "address"
        }
      ],
      "name": "isDistributor",
      "outputs": [
        {
          "internalType": "bool",
          "name": "",
          "type": "bool"
        }
      ],
      "stateMutability": "view",
      "type": "function"
    },
    {
      "inputs": [
        {
          "internalType": "address",
          "name": "_address",
          "type": "address"
        }
      ],
      "name": "isFarmer",
      "outputs": [
        {
          "internalType": "bool",
          "name": "",
          "type": "bool"
        }
      ],
      "stateMutability": "view",
      "type": "function"
    },
    {
      "inputs": [],
      "name": "isOwner",
      "outputs": [
        {
          "internalType": "bool",
          "name": "",
          "type": "bool"
        }
      ],
      "stateMutability": "view",
      "type": "function"
    },
    {
      "inputs": [
        {
          "internalType": "address",
          "name": "_address",
          "type": "address"
        }
      ],
      "name": "isRetailer",
      "outputs": [
        {
          "internalType": "bool",
          "name": "",
          "type": "bool"
        }
      ],
      "stateMutability": "view",
      "type": "function"
    },
    {
      "inputs": [
        {
          "internalType": "uint256",
          "name": "_unique_id",
          "type": "uint256"
        },
        {
          "internalType": "uint256",
          "name": "_new_price",
          "type": "uint256"
        }
      ],
      "name": "is_ready",
      "outputs": [],
      "stateMutability": "nonpayable",
      "type": "function"
    },
    {
      "inputs": [],
      "name": "life_of_a_product",
      "outputs": [
        {
          "internalType": "uint256",
          "name": "",
          "type": "uint256"
        }
      ],
      "stateMutability": "view",
      "type": "function"
    },
    {
      "inputs": [
        {
          "internalType": "uint256",
          "name": "",
          "type": "uint256"
        },
        {
          "internalType": "string",
          "name": "",
          "type": "string"
        }
      ],
      "name": "mapping_d",
      "outputs": [
        {
          "internalType": "address",
          "name": "distr_address",
          "type": "address"
        },
        {
          "internalType": "string",
          "name": "distr_name",
          "type": "string"
        },
        {
          "internalType": "string",
          "name": "product_name",
          "type": "string"
        },
        {
          "internalType": "uint256",
          "name": "unique_id",
          "type": "uint256"
        },
        {
          "internalType": "uint256",
          "name": "price",
          "type": "uint256"
        },
        {
          "internalType": "uint32",
          "name": "weight_kg",
          "type": "uint32"
        },
        {
          "internalType": "uint32",
          "name": "production_date",
          "type": "uint32"
        },
        {
          "internalType": "uint32",
          "name": "expiration_date",
          "type": "uint32"
        }
      ],
      "stateMutability": "view",
      "type": "function"
    },
    {
      "inputs": [
        {
          "internalType": "uint256",
          "name": "",
          "type": "uint256"
        }
      ],
      "name": "mapping_m",
      "outputs": [
        {
          "internalType": "address",
          "name": "farm_address",
          "type": "address"
        },
        {
          "internalType": "string",
          "name": "farm_name",
          "type": "string"
        },
        {
          "internalType": "string",
          "name": "farm_seat",
          "type": "string"
        },
        {
          "internalType": "string",
          "name": "product_name",
          "type": "string"
        },
        {
          "internalType": "uint32",
          "name": "production_date",
          "type": "uint32"
        },
        {
          "internalType": "uint32",
          "name": "expiration_date",
          "type": "uint32"
        },
        {
          "internalType": "uint32",
          "name": "weight_kg",
          "type": "uint32"
        },
        {
          "internalType": "uint256",
          "name": "price",
          "type": "uint256"
        },
        {
          "internalType": "uint256",
          "name": "unique_id",
          "type": "uint256"
        }
      ],
      "stateMutability": "view",
      "type": "function"
    },
    {
      "inputs": [
        {
          "internalType": "uint256",
          "name": "",
          "type": "uint256"
        },
        {
          "internalType": "string",
          "name": "",
          "type": "string"
        }
      ],
      "name": "mapping_r",
      "outputs": [
        {
          "internalType": "address",
          "name": "ret_address",
          "type": "address"
        },
        {
          "internalType": "string",
          "name": "ret_name",
          "type": "string"
        },
        {
          "internalType": "string",
          "name": "ret_seat",
          "type": "string"
        },
        {
          "internalType": "string",
          "name": "product_name",
          "type": "string"
        },
        {
          "internalType": "uint32",
          "name": "production_date",
          "type": "uint32"
        },
        {
          "internalType": "uint32",
          "name": "expiration_date",
          "type": "uint32"
        },
        {
          "internalType": "uint32",
          "name": "weight_kg",
          "type": "uint32"
        },
        {
          "internalType": "uint256",
          "name": "price",
          "type": "uint256"
        },
        {
          "internalType": "uint256",
          "name": "unique_id",
          "type": "uint256"
        }
      ],
      "stateMutability": "view",
      "type": "function"
    },
    {
      "inputs": [],
      "name": "modulus",
      "outputs": [
        {
          "internalType": "uint256",
          "name": "",
          "type": "uint256"
        }
      ],
      "stateMutability": "view",
      "type": "function"
    },
    {
      "inputs": [
        {
          "internalType": "address",
          "name": "",
          "type": "address"
        }
      ],
      "name": "name_d",
      "outputs": [
        {
          "internalType": "string",
          "name": "",
          "type": "string"
        }
      ],
      "stateMutability": "view",
      "type": "function"
    },
    {
      "inputs": [
        {
          "internalType": "address",
          "name": "",
          "type": "address"
        }
      ],
      "name": "name_f",
      "outputs": [
        {
          "internalType": "string",
          "name": "",
          "type": "string"
        }
      ],
      "stateMutability": "view",
      "type": "function"
    },
    {
      "inputs": [
        {
          "internalType": "address",
          "name": "",
          "type": "address"
        }
      ],
      "name": "name_r",
      "outputs": [
        {
          "internalType": "string",
          "name": "",
          "type": "string"
        }
      ],
      "stateMutability": "view",
      "type": "function"
    },
    {
      "inputs": [],
      "name": "owner",
      "outputs": [
        {
          "internalType": "address",
          "name": "",
          "type": "address"
        }
      ],
      "stateMutability": "view",
      "type": "function"
    },
    {
      "inputs": [
        {
          "internalType": "address",
          "name": "_address",
          "type": "address"
        }
      ],
      "name": "removeConsumer",
      "outputs": [],
      "stateMutability": "nonpayable",
      "type": "function"
    },
    {
      "inputs": [
        {
          "internalType": "address",
          "name": "_address",
          "type": "address"
        }
      ],
      "name": "removeDistributor",
      "outputs": [],
      "stateMutability": "nonpayable",
      "type": "function"
    },
    {
      "inputs": [
        {
          "internalType": "address",
          "name": "_address",
          "type": "address"
        }
      ],
      "name": "removeFarmer",
      "outputs": [],
      "stateMutability": "nonpayable",
      "type": "function"
    },
    {
      "inputs": [
        {
          "internalType": "address",
          "name": "_address",
          "type": "address"
        }
      ],
      "name": "removeRetailer",
      "outputs": [],
      "stateMutability": "nonpayable",
      "type": "function"
    },
    {
      "inputs": [],
      "name": "renounceDistributor",
      "outputs": [],
      "stateMutability": "nonpayable",
      "type": "function"
    },
    {
      "inputs": [],
      "name": "renounceFarmer",
      "outputs": [],
      "stateMutability": "nonpayable",
      "type": "function"
    },
    {
      "inputs": [],
      "name": "renounceOwnership",
      "outputs": [],
      "stateMutability": "nonpayable",
      "type": "function"
    },
    {
      "inputs": [],
      "name": "renounceRetailer",
      "outputs": [],
      "stateMutability": "nonpayable",
      "type": "function"
    },
    {
      "inputs": [
        {
          "internalType": "string",
          "name": "",
          "type": "string"
        }
      ],
      "name": "seat_f",
      "outputs": [
        {
          "internalType": "string",
          "name": "",
          "type": "string"
        }
      ],
      "stateMutability": "view",
      "type": "function"
    },
    {
      "inputs": [
        {
          "internalType": "string",
          "name": "",
          "type": "string"
        }
      ],
      "name": "seat_r",
      "outputs": [
        {
          "internalType": "string",
          "name": "",
          "type": "string"
        }
      ],
      "stateMutability": "view",
      "type": "function"
    },
    {
      "inputs": [
        {
          "internalType": "address",
          "name": "newOwner",
          "type": "address"
        }
      ],
      "name": "transferOwnership",
      "outputs": [],
      "stateMutability": "nonpayable",
      "type": "function"
    }
  ],
  "bytecode": "0x608060405234801561001057600080fd5b50336000806101000a81548173ffffffffffffffffffffffffffffffffffffffff021916908373ffffffffffffffffffffffffffffffffffffffff16021790555060008054906101000a900473ffffffffffffffffffffffffffffffffffffffff1673ffffffffffffffffffffffffffffffffffffffff16600073ffffffffffffffffffffffffffffffffffffffff167f8be0079c531659141344cd1fd0a4f28419497f9722a3daafe3b4186f6b6457e060405160405180910390a361583880620000dc6000396000f3fe6080604052600436106102305760003560e01c8063834ff7391161012e578063db0e6a2f116100ab578063f11614831161006f578063f1161483146107f1578063f2fde38b1461082e578063f576c33614610857578063f66e3adf1461089c578063ff4b0400146108c557610230565b8063db0e6a2f14610722578063dbc594db14610739578063e6bf3fdc14610762578063e9bf6b4c1461078b578063ee1b8478146107b457610230565b8063906ae7f8116100f2578063906ae7f81461060557806395e4dc2514610642578063b857e8e11461067f578063b8dc6ef8146106a8578063b9429069146106e557610230565b8063834ff7391461050c578063857ddb04146105495780638da5cb5b146105725780638f0c86fa1461059d5780638f32d59b146105da57610230565b806357c1f9e2116101bc57806366e35e411161018057806366e35e411461048257806370099ec81461049e578063715018a6146104c75780637e4aa3c6146104de57806380fc0ce4146104f557610230565b806357c1f9e2146103b15780635befc964146103da5780635da09b8814610405578063611ed64614610442578063644241db1461046b57610230565b80632b68b9c6116102035780632b68b9c6146102bf57806335f3b45b146102d65780634b9746d11461031b5780634cca83b01461035f5780635566fec41461038857610230565b80630e27e3df146102355780631214d2fd1461025e5780631afd6eb6146102875780631c37dbab146102a3575b600080fd5b34801561024157600080fd5b5061025c60048036038101906102579190613eba565b6108f0565b005b34801561026a57600080fd5b506102856004803603810190610280919061402d565b610946565b005b6102a1600480360381019061029c91906140fb565b6109f1565b005b6102bd60048036038101906102b891906140fb565b610eb3565b005b3480156102cb57600080fd5b506102d4611729565b005b3480156102e257600080fd5b506102fd60048036038101906102f8919061417e565b611753565b60405161031299989796959493929190614260565b60405180910390f35b34801561032757600080fd5b50610342600480360381019061033d9190614302565b611989565b60405161035698979695949392919061435e565b60405180910390f35b34801561036b57600080fd5b50610386600480360381019061038191906143ea565b611b54565b005b34801561039457600080fd5b506103af60048036038101906103aa9190614459565b611f10565b005b3480156103bd57600080fd5b506103d860048036038101906103d39190613eba565b612028565b005b3480156103e657600080fd5b506103ef61207e565b6040516103fc91906144d1565b60405180910390f35b34801561041157600080fd5b5061042c60048036038101906104279190613eba565b612085565b6040516104399190614507565b60405180910390f35b34801561044e57600080fd5b5061046960048036038101906104649190614522565b612099565b005b34801561047757600080fd5b5061048061230b565b005b61049c60048036038101906104979190614562565b612399565b005b3480156104aa57600080fd5b506104c560048036038101906104c09190613eba565b612a85565b005b3480156104d357600080fd5b506104dc612adb565b005b3480156104ea57600080fd5b506104f3612baa565b005b34801561050157600080fd5b5061050a612bee565b005b34801561051857600080fd5b50610533600480360381019061052e9190613eba565b612c7c565b6040516105409190614507565b60405180910390f35b34801561055557600080fd5b50610570600480360381019061056b91906145b5565b612c90565b005b34801561057e57600080fd5b50610587612d6f565b6040516105949190614640565b60405180910390f35b3480156105a957600080fd5b506105c460048036038101906105bf9190613eba565b612d98565b6040516105d19190614507565b60405180910390f35b3480156105e657600080fd5b506105ef612dac565b6040516105fc9190614507565b60405180910390f35b34801561061157600080fd5b5061062c6004803603810190610627919061465b565b612e03565b60405161063991906146a4565b60405180910390f35b34801561064e57600080fd5b5061066960048036038101906106649190613eba565b612eb9565b60405161067691906146a4565b60405180910390f35b34801561068b57600080fd5b506106a660048036038101906106a19190614522565b612f59565b005b3480156106b457600080fd5b506106cf60048036038101906106ca9190613eba565b6131cb565b6040516106dc91906146a4565b60405180910390f35b3480156106f157600080fd5b5061070c60048036038101906107079190613eba565b61326b565b6040516107199190614507565b60405180910390f35b34801561072e57600080fd5b5061073761327f565b005b34801561074557600080fd5b50610760600480360381019061075b9190614459565b61330d565b005b34801561076e57600080fd5b5061078960048036038101906107849190613eba565b613425565b005b34801561079757600080fd5b506107b260048036038101906107ad91906145b5565b61347b565b005b3480156107c057600080fd5b506107db60048036038101906107d69190613eba565b61355a565b6040516107e891906146a4565b60405180910390f35b3480156107fd57600080fd5b506108186004803603810190610813919061465b565b6135fa565b60405161082591906146a4565b60405180910390f35b34801561083a57600080fd5b5061085560048036038101906108509190613eba565b6136b0565b005b34801561086357600080fd5b5061087e60048036038101906108799190614302565b6136cd565b60405161089399989796959493929190614260565b60405180910390f35b3480156108a857600080fd5b506108c360048036038101906108be919061465b565b613926565b005b3480156108d157600080fd5b506108da6139bf565b6040516108e791906144d1565b60405180910390f35b6108f8612dac565b61090157600080fd5b61090c6003826139ca565b7f761662c32f56125be008a762d83b14c22295ff94c8a9c00b06269256c7a7f8d28160405161093b9190614712565b60405180910390a150565b61094e612dac565b61095757600080fd5b610962600183613aab565b80600260008473ffffffffffffffffffffffffffffffffffffffff1673ffffffffffffffffffffffffffffffffffffffff16815260200190815260200160002090805190602001906109b5929190613d65565b507f6398a7c503a960a72b53dd4ccae3dc5c87fc1cdd53e59c7774f9df356cf346fb826040516109e591906147b2565b60405180910390a15050565b6109fc600333613b8d565b610a3b576040517f08c379a0000000000000000000000000000000000000000000000000000000008152600401610a3290614852565b60405180910390fd5b82816000600c600084815260200190815260200160002082604051610a6091906148ae565b908152602001604051809103902060040160089054906101000a900463ffffffff1663ffffffff1611610ac8576040517f08c379a0000000000000000000000000000000000000000000000000000000008152600401610abf90614937565b60405180910390fd5b8442600a600083815260200190815260200160002060040160049054906101000a900463ffffffff1663ffffffff1611610b37576040517f08c379a0000000000000000000000000000000000000000000000000000000008152600401610b2e906149a3565b60405180910390fd5b85846000600c600084815260200190815260200160002082604051610b5c91906148ae565b90815260200160405180910390206005015411610bae576040517f08c379a0000000000000000000000000000000000000000000000000000000008152600401610ba590614a35565b60405180910390fd5b6000600c60008a815260200190815260200160002087604051610bd191906148ae565b9081526020016040518091039020905060008160000160009054906101000a900473ffffffffffffffffffffffffffffffffffffffff16905088341015610c4d576040517f08c379a0000000000000000000000000000000000000000000000000000000008152600401610c4490614aa1565b60405180910390fd5b88341115610ca8573373ffffffffffffffffffffffffffffffffffffffff166108fc8a34610c7b9190614af0565b9081150290604051600060405180830381858888f19350505050158015610ca6573d6000803e3d6000fd5b505b8073ffffffffffffffffffffffffffffffffffffffff166108fc8a9081150290604051600060405180830381858888f19350505050158015610cee573d6000803e3d6000fd5b508a8260040160089054906101000a900463ffffffff16610d0f9190614b24565b8260040160086101000a81548163ffffffff021916908363ffffffff160217905550888260050154610d419190614af0565b826005018190555060008260040160089054906101000a900463ffffffff1663ffffffff161415610e4b57600c60008b815260200190815260200160002088604051610d8d91906148ae565b9081526020016040518091039020600080820160006101000a81549073ffffffffffffffffffffffffffffffffffffffff0219169055600182016000610dd39190613deb565b600282016000610de39190613deb565b600382016000610df39190613deb565b6004820160006101000a81549063ffffffff02191690556004820160046101000a81549063ffffffff02191690556004820160086101000a81549063ffffffff02191690556005820160009055600682016000905550505b3373ffffffffffffffffffffffffffffffffffffffff168173ffffffffffffffffffffffffffffffffffffffff168b7fdf94d8355e0a51df2791d80d1d4a2d8027d9bf70da57461fb6662130ee102c8960405160405180910390a45050505050505050505050565b610ebe600433613b8d565b610efd576040517f08c379a0000000000000000000000000000000000000000000000000000000008152600401610ef490614bca565b60405180910390fd5b82816000600b600084815260200190815260200160002082604051610f2291906148ae565b908152602001604051809103902060050160009054906101000a900463ffffffff1663ffffffff1611610f8a576040517f08c379a0000000000000000000000000000000000000000000000000000000008152600401610f8190614c5c565b60405180910390fd5b84836000600b600084815260200190815260200160002082604051610faf91906148ae565b90815260200160405180910390206004015411611001576040517f08c379a0000000000000000000000000000000000000000000000000000000008152600401610ff890614cee565b60405180910390fd5b60008863ffffffff16141561104b576040517f08c379a000000000000000000000000000000000000000000000000000000000815260040161104290614d5a565b60405180910390fd5b6000600b60008981526020019081526020016000208660405161106e91906148ae565b9081526020016040518091039020905060008160000160009054906101000a900473ffffffffffffffffffffffffffffffffffffffff169050873410156110ea576040517f08c379a00000000000000000000000000000000000000000000000000000000081526004016110e190614aa1565b60405180910390fd5b87341115611145573373ffffffffffffffffffffffffffffffffffffffff166108fc89346111189190614af0565b9081150290604051600060405180830381858888f19350505050158015611143573d6000803e3d6000fd5b505b8073ffffffffffffffffffffffffffffffffffffffff166108fc899081150290604051600060405180830381858888f1935050505015801561118b573d6000803e3d6000fd5b506000600560003373ffffffffffffffffffffffffffffffffffffffff1673ffffffffffffffffffffffffffffffffffffffff16815260200190815260200160002080546111d890614da9565b80601f016020809104026020016040519081016040528092919081815260200182805461120490614da9565b80156112515780601f1061122657610100808354040283529160200191611251565b820191906000526020600020905b81548152906001019060200180831161123457829003601f168201915b505050505090506040518061012001604052803373ffffffffffffffffffffffffffffffffffffffff16815260200182815260200160068360405161129691906148ae565b908152602001604051809103902080546112af90614da9565b80601f01602080910402602001604051908101604052809291908181526020018280546112db90614da9565b80156113285780601f106112fd57610100808354040283529160200191611328565b820191906000526020600020905b81548152906001019060200180831161130b57829003601f168201915b5050505050815260200184600201805461134190614da9565b80601f016020809104026020016040519081016040528092919081815260200182805461136d90614da9565b80156113ba5780601f1061138f576101008083540402835291602001916113ba565b820191906000526020600020905b81548152906001019060200180831161139d57829003601f168201915b505050505081526020018460050160049054906101000a900463ffffffff1663ffffffff1681526020018460050160089054906101000a900463ffffffff1663ffffffff1681526020018c63ffffffff168152602001600081526020018b815250600c60008c81526020019081526020016000208260405161143c91906148ae565b908152602001604051809103902060008201518160000160006101000a81548173ffffffffffffffffffffffffffffffffffffffff021916908373ffffffffffffffffffffffffffffffffffffffff16021790555060208201518160010190805190602001906114ad929190613d65565b5060408201518160020190805190602001906114ca929190613d65565b5060608201518160030190805190602001906114e7929190613d65565b5060808201518160040160006101000a81548163ffffffff021916908363ffffffff16021790555060a08201518160040160046101000a81548163ffffffff021916908363ffffffff16021790555060c08201518160040160086101000a81548163ffffffff021916908363ffffffff16021790555060e0820151816005015561010082015181600601559050508a8360050160009054906101000a900463ffffffff166115959190614b24565b8360050160006101000a81548163ffffffff021916908363ffffffff1602179055508883600401546115c79190614af0565b836004018190555060008360050160009054906101000a900463ffffffff1663ffffffff1614156116c157600b60008b81526020019081526020016000208860405161161391906148ae565b9081526020016040518091039020600080820160006101000a81549073ffffffffffffffffffffffffffffffffffffffff02191690556001820160006116599190613deb565b6002820160006116699190613deb565b600382016000905560048201600090556005820160006101000a81549063ffffffff02191690556005820160046101000a81549063ffffffff02191690556005820160086101000a81549063ffffffff021916905550505b3373ffffffffffffffffffffffffffffffffffffffff168273ffffffffffffffffffffffffffffffffffffffff168b7f149c72c322b1aa0f4144e6454cc6092389fc1ac22f26dcae3cbb50df463126dc60405160405180910390a45050505050505050505050565b611731612dac565b61173a57600080fd5b3373ffffffffffffffffffffffffffffffffffffffff16ff5b600a6020528060005260406000206000915090508060000160009054906101000a900473ffffffffffffffffffffffffffffffffffffffff169080600101805461179c90614da9565b80601f01602080910402602001604051908101604052809291908181526020018280546117c890614da9565b80156118155780601f106117ea57610100808354040283529160200191611815565b820191906000526020600020905b8154815290600101906020018083116117f857829003601f168201915b50505050509080600201805461182a90614da9565b80601f016020809104026020016040519081016040528092919081815260200182805461185690614da9565b80156118a35780601f10611878576101008083540402835291602001916118a3565b820191906000526020600020905b81548152906001019060200180831161188657829003601f168201915b5050505050908060030180546118b890614da9565b80601f01602080910402602001604051908101604052809291908181526020018280546118e490614da9565b80156119315780601f1061190657610100808354040283529160200191611931565b820191906000526020600020905b81548152906001019060200180831161191457829003601f168201915b5050505050908060040160009054906101000a900463ffffffff16908060040160049054906101000a900463ffffffff16908060040160089054906101000a900463ffffffff16908060050154908060060154905089565b600b60205281600052604060002081805160208101820180518482526020830160208501208183528095505050505050600091509150508060000160009054906101000a900473ffffffffffffffffffffffffffffffffffffffff16908060010180546119f590614da9565b80601f0160208091040260200160405190810160405280929190818152602001828054611a2190614da9565b8015611a6e5780601f10611a4357610100808354040283529160200191611a6e565b820191906000526020600020905b815481529060010190602001808311611a5157829003601f168201915b505050505090806002018054611a8390614da9565b80601f0160208091040260200160405190810160405280929190818152602001828054611aaf90614da9565b8015611afc5780601f10611ad157610100808354040283529160200191611afc565b820191906000526020600020905b815481529060010190602001808311611adf57829003601f168201915b5050505050908060030154908060040154908060050160009054906101000a900463ffffffff16908060050160049054906101000a900463ffffffff16908060050160089054906101000a900463ffffffff16905088565b611b5f600733613b8d565b611b9e576040517f08c379a0000000000000000000000000000000000000000000000000000000008152600401611b9590614e27565b60405180910390fd5b6000600860003373ffffffffffffffffffffffffffffffffffffffff1673ffffffffffffffffffffffffffffffffffffffff1681526020019081526020016000208054611bea90614da9565b80601f0160208091040260200160405190810160405280929190818152602001828054611c1690614da9565b8015611c635780601f10611c3857610100808354040283529160200191611c63565b820191906000526020600020905b815481529060010190602001808311611c4657829003601f168201915b505050505090506000611c7582613c1f565b90506040518061012001604052803373ffffffffffffffffffffffffffffffffffffffff168152602001838152602001600984604051611cb591906148ae565b90815260200160405180910390208054611cce90614da9565b80601f0160208091040260200160405190810160405280929190818152602001828054611cfa90614da9565b8015611d475780601f10611d1c57610100808354040283529160200191611d47565b820191906000526020600020905b815481529060010190602001808311611d2a57829003601f168201915b505050505081526020018481526020014263ffffffff168152602001620d2f0042611d729190614e47565b63ffffffff1681526020018663ffffffff16815260200185815260200182815250600a600083815260200190815260200160002060008201518160000160006101000a81548173ffffffffffffffffffffffffffffffffffffffff021916908373ffffffffffffffffffffffffffffffffffffffff1602179055506020820151816001019080519060200190611e09929190613d65565b506040820151816002019080519060200190611e26929190613d65565b506060820151816003019080519060200190611e43929190613d65565b5060808201518160040160006101000a81548163ffffffff021916908363ffffffff16021790555060a08201518160040160046101000a81548163ffffffff021916908363ffffffff16021790555060c08201518160040160086101000a81548163ffffffff021916908363ffffffff16021790555060e082015181600501556101008201518160060155905050807ffa334c82a3c70a027efcd0e909a055ffd16de437d0699bbf1b0a806ed3e22ca433604051611f019190614640565b60405180910390a25050505050565b611f1b600433613b8d565b15611f5b576040517f08c379a0000000000000000000000000000000000000000000000000000000008152600401611f5290614ee9565b60405180910390fd5b611f66600433613aab565b81600560003373ffffffffffffffffffffffffffffffffffffffff1673ffffffffffffffffffffffffffffffffffffffff1681526020019081526020016000209080519060200190611fb9929190613d65565b5080600683604051611fcb91906148ae565b90815260200160405180910390209080519060200190611fec929190613d65565b507fba7021c0cf6b0b5336d6568faba5e6ef0a55e7d03bfc63c4e3f2e19a10ebd3433360405161201c9190614f55565b60405180910390a15050565b612030612dac565b61203957600080fd5b6120446001826139ca565b7ff0ee64ed0043ce4f70dbb25cc364f185b5a2c7c1af6d831262b777ea2c3b624e816040516120739190614fcf565b60405180910390a150565b620d2f0081565b6000612092600483613b8d565b9050919050565b6120a4600433613b8d565b6120e3576040517f08c379a00000000000000000000000000000000000000000000000000000000081526004016120da90614bca565b60405180910390fd5b6000811415612127576040517f08c379a000000000000000000000000000000000000000000000000000000000815260040161211e90615049565b60405180910390fd5b6000600560003373ffffffffffffffffffffffffffffffffffffffff1673ffffffffffffffffffffffffffffffffffffffff168152602001908152602001600020805461217390614da9565b80601f016020809104026020016040519081016040528092919081815260200182805461219f90614da9565b80156121ec5780601f106121c1576101008083540402835291602001916121ec565b820191906000526020600020905b8154815290600101906020018083116121cf57829003601f168201915b505050505090506000600c60008581526020019081526020016000208260405161221691906148ae565b908152602001604051809103902090503373ffffffffffffffffffffffffffffffffffffffff168160000160009054906101000a900473ffffffffffffffffffffffffffffffffffffffff1673ffffffffffffffffffffffffffffffffffffffff16146122b8576040517f08c379a00000000000000000000000000000000000000000000000000000000081526004016122af906150b5565b60405180910390fd5b8281600501819055503373ffffffffffffffffffffffffffffffffffffffff16847ff8d418fe5519f977eb2f4d9426f08070c3ccae0d148c173f9e97ddbbd810bb6160405160405180910390a350505050565b612316600133613b8d565b612355576040517f08c379a000000000000000000000000000000000000000000000000000000000815260040161234c90615147565b60405180910390fd5b6123606001336139ca565b7f2606813404f2280c7f08c023cf7c2ba636b0dc8e428fee5be60da27f25d3eec53360405161238f91906151b3565b60405180910390a1565b6123a4600133613b8d565b6123e3576040517f08c379a00000000000000000000000000000000000000000000000000000000081526004016123da90615147565b60405180910390fd5b816000600a600083815260200190815260200160002060040160089054906101000a900463ffffffff1663ffffffff1611612453576040517f08c379a000000000000000000000000000000000000000000000000000000000815260040161244a90615253565b60405180910390fd5b60008463ffffffff16141561249d576040517f08c379a000000000000000000000000000000000000000000000000000000000815260040161249490614d5a565b60405180910390fd5b6000600a6000858152602001908152602001600020905060008160000160009054906101000a900473ffffffffffffffffffffffffffffffffffffffff16905083341015612520576040517f08c379a000000000000000000000000000000000000000000000000000000000815260040161251790614aa1565b60405180910390fd5b8334111561257b573373ffffffffffffffffffffffffffffffffffffffff166108fc853461254e9190614af0565b9081150290604051600060405180830381858888f19350505050158015612579573d6000803e3d6000fd5b505b8073ffffffffffffffffffffffffffffffffffffffff166108fc859081150290604051600060405180830381858888f193505050501580156125c1573d6000803e3d6000fd5b506000600260003373ffffffffffffffffffffffffffffffffffffffff1673ffffffffffffffffffffffffffffffffffffffff168152602001908152602001600020805461260e90614da9565b80601f016020809104026020016040519081016040528092919081815260200182805461263a90614da9565b80156126875780601f1061265c57610100808354040283529160200191612687565b820191906000526020600020905b81548152906001019060200180831161266a57829003601f168201915b505050505090506040518061010001604052803373ffffffffffffffffffffffffffffffffffffffff1681526020018281526020018460030180546126cb90614da9565b80601f01602080910402602001604051908101604052809291908181526020018280546126f790614da9565b80156127445780601f1061271957610100808354040283529160200191612744565b820191906000526020600020905b81548152906001019060200180831161272757829003601f168201915b50505050508152602001878152602001600081526020018863ffffffff1681526020018460040160009054906101000a900463ffffffff1663ffffffff1681526020018460040160049054906101000a900463ffffffff1663ffffffff16815250600b6000888152602001908152602001600020826040516127c691906148ae565b908152602001604051809103902060008201518160000160006101000a81548173ffffffffffffffffffffffffffffffffffffffff021916908373ffffffffffffffffffffffffffffffffffffffff1602179055506020820151816001019080519060200190612837929190613d65565b506040820151816002019080519060200190612854929190613d65565b50606082015181600301556080820151816004015560a08201518160050160006101000a81548163ffffffff021916908363ffffffff16021790555060c08201518160050160046101000a81548163ffffffff021916908363ffffffff16021790555060e08201518160050160086101000a81548163ffffffff021916908363ffffffff160217905550905050868360040160089054906101000a900463ffffffff166129019190614b24565b8360040160086101000a81548163ffffffff021916908363ffffffff1602179055508483600501546129339190614af0565b836005018190555060008360040160089054906101000a900463ffffffff1663ffffffff161415612a2157600a6000878152602001908152602001600020600080820160006101000a81549073ffffffffffffffffffffffffffffffffffffffff02191690556001820160006129a99190613deb565b6002820160006129b99190613deb565b6003820160006129c99190613deb565b6004820160006101000a81549063ffffffff02191690556004820160046101000a81549063ffffffff02191690556004820160086101000a81549063ffffffff02191690556005820160009055600682016000905550505b3373ffffffffffffffffffffffffffffffffffffffff168273ffffffffffffffffffffffffffffffffffffffff16877f67c453033db83ee463bb2ec783cd2297653ccaf3e7cd01c738cfdaca2a93256660405160405180910390a450505050505050565b612a8d612dac565b612a9657600080fd5b612aa16004826139ca565b7fbf5b8991340e47e8df6729d01567f36d6c11f9fee171eb650fb4cbbd8618501981604051612ad091906152bf565b60405180910390a150565b612ae3612dac565b612aec57600080fd5b600073ffffffffffffffffffffffffffffffffffffffff1660008054906101000a900473ffffffffffffffffffffffffffffffffffffffff1673ffffffffffffffffffffffffffffffffffffffff167f8be0079c531659141344cd1fd0a4f28419497f9722a3daafe3b4186f6b6457e060405160405180910390a360008060006101000a81548173ffffffffffffffffffffffffffffffffffffffff021916908373ffffffffffffffffffffffffffffffffffffffff160217905550565b612bb5600333613aab565b7f1c4cbcf5f21732a19630f78a7bb29c76002168e82f1c1647067bb00c6187bcdb33604051612be49190615339565b60405180910390a1565b612bf9600733613b8d565b612c38576040517f08c379a0000000000000000000000000000000000000000000000000000000008152600401612c2f90614e27565b60405180910390fd5b612c436007336139ca565b7f5464c799b9809ff125ad21a2c7dfcb12d5d5e374a088f16340fa884ca111d10d33604051612c7291906153b3565b60405180910390a1565b6000612c89600383613b8d565b9050919050565b612c98612dac565b612ca157600080fd5b612cac600484613aab565b81600560008573ffffffffffffffffffffffffffffffffffffffff1673ffffffffffffffffffffffffffffffffffffffff1681526020019081526020016000209080519060200190612cff929190613d65565b5080600683604051612d1191906148ae565b90815260200160405180910390209080519060200190612d32929190613d65565b507fba7021c0cf6b0b5336d6568faba5e6ef0a55e7d03bfc63c4e3f2e19a10ebd34383604051612d629190615453565b60405180910390a1505050565b60008060009054906101000a900473ffffffffffffffffffffffffffffffffffffffff16905090565b6000612da5600183613b8d565b9050919050565b60008060009054906101000a900473ffffffffffffffffffffffffffffffffffffffff1673ffffffffffffffffffffffffffffffffffffffff163373ffffffffffffffffffffffffffffffffffffffff1614905090565b6009818051602081018201805184825260208301602085012081835280955050505050506000915090508054612e3890614da9565b80601f0160208091040260200160405190810160405280929190818152602001828054612e6490614da9565b8015612eb15780601f10612e8657610100808354040283529160200191612eb1565b820191906000526020600020905b815481529060010190602001808311612e9457829003601f168201915b505050505081565b60026020528060005260406000206000915090508054612ed890614da9565b80601f0160208091040260200160405190810160405280929190818152602001828054612f0490614da9565b8015612f515780601f10612f2657610100808354040283529160200191612f51565b820191906000526020600020905b815481529060010190602001808311612f3457829003601f168201915b505050505081565b612f64600133613b8d565b612fa3576040517f08c379a0000000000000000000000000000000000000000000000000000000008152600401612f9a90615147565b60405180910390fd5b6000811415612fe7576040517f08c379a0000000000000000000000000000000000000000000000000000000008152600401612fde90615049565b60405180910390fd5b6000600260003373ffffffffffffffffffffffffffffffffffffffff1673ffffffffffffffffffffffffffffffffffffffff168152602001908152602001600020805461303390614da9565b80601f016020809104026020016040519081016040528092919081815260200182805461305f90614da9565b80156130ac5780601f10613081576101008083540402835291602001916130ac565b820191906000526020600020905b81548152906001019060200180831161308f57829003601f168201915b505050505090506000600b6000858152602001908152602001600020826040516130d691906148ae565b908152602001604051809103902090503373ffffffffffffffffffffffffffffffffffffffff168160000160009054906101000a900473ffffffffffffffffffffffffffffffffffffffff1673ffffffffffffffffffffffffffffffffffffffff1614613178576040517f08c379a000000000000000000000000000000000000000000000000000000000815260040161316f906150b5565b60405180910390fd5b8281600401819055503373ffffffffffffffffffffffffffffffffffffffff16847ffdbe191abfc6806c162a2f607ad4c2d6250941d36636bb922fa013f949f5a29660405160405180910390a350505050565b600860205280600052604060002060009150905080546131ea90614da9565b80601f016020809104026020016040519081016040528092919081815260200182805461321690614da9565b80156132635780601f1061323857610100808354040283529160200191613263565b820191906000526020600020905b81548152906001019060200180831161324657829003601f168201915b505050505081565b6000613278600783613b8d565b9050919050565b61328a600433613b8d565b6132c9576040517f08c379a00000000000000000000000000000000000000000000000000000000081526004016132c090614bca565b60405180910390fd5b6132d46004336139ca565b7fdd95582892bef7c105eea4eaa8cb5b1fdaea2f78fd9ca60f1a2dab81a3a30c3e3360405161330391906154cd565b60405180910390a1565b613318600733613b8d565b15613358576040517f08c379a000000000000000000000000000000000000000000000000000000000815260040161334f90615547565b60405180910390fd5b613363600733613aab565b81600860003373ffffffffffffffffffffffffffffffffffffffff1673ffffffffffffffffffffffffffffffffffffffff16815260200190815260200160002090805190602001906133b6929190613d65565b50806009836040516133c891906148ae565b908152602001604051809103902090805190602001906133e9929190613d65565b507fb2031b6b598a82633c02b9ea17d9ecb0780d7108d09131ad13c4bd3feb928df1336040516134199190614f55565b60405180910390a15050565b61342d612dac565b61343657600080fd5b6134416007826139ca565b7f53a08b97f7b7226129bd6490b4e286d31a6e5b6a08724600ae7112f94041f68f8160405161347091906155b3565b60405180910390a150565b613483612dac565b61348c57600080fd5b613497600784613aab565b81600860008573ffffffffffffffffffffffffffffffffffffffff1673ffffffffffffffffffffffffffffffffffffffff16815260200190815260200160002090805190602001906134ea929190613d65565b50806009836040516134fc91906148ae565b9081526020016040518091039020908051906020019061351d929190613d65565b507fb2031b6b598a82633c02b9ea17d9ecb0780d7108d09131ad13c4bd3feb928df18360405161354d919061562d565b60405180910390a1505050565b6005602052806000526040600020600091509050805461357990614da9565b80601f01602080910402602001604051908101604052809291908181526020018280546135a590614da9565b80156135f25780601f106135c7576101008083540402835291602001916135f2565b820191906000526020600020905b8154815290600101906020018083116135d557829003601f168201915b505050505081565b600681805160208101820180518482526020830160208501208183528095505050505050600091509050805461362f90614da9565b80601f016020809104026020016040519081016040528092919081815260200182805461365b90614da9565b80156136a85780601f1061367d576101008083540402835291602001916136a8565b820191906000526020600020905b81548152906001019060200180831161368b57829003601f168201915b505050505081565b6136b8612dac565b6136c157600080fd5b6136ca81613c6e565b50565b600c60205281600052604060002081805160208101820180518482526020830160208501208183528095505050505050600091509150508060000160009054906101000a900473ffffffffffffffffffffffffffffffffffffffff169080600101805461373990614da9565b80601f016020809104026020016040519081016040528092919081815260200182805461376590614da9565b80156137b25780601f10613787576101008083540402835291602001916137b2565b820191906000526020600020905b81548152906001019060200180831161379557829003601f168201915b5050505050908060020180546137c790614da9565b80601f01602080910402602001604051908101604052809291908181526020018280546137f390614da9565b80156138405780601f1061381557610100808354040283529160200191613840565b820191906000526020600020905b81548152906001019060200180831161382357829003601f168201915b50505050509080600301805461385590614da9565b80601f016020809104026020016040519081016040528092919081815260200182805461388190614da9565b80156138ce5780601f106138a3576101008083540402835291602001916138ce565b820191906000526020600020905b8154815290600101906020018083116138b157829003601f168201915b5050505050908060040160009054906101000a900463ffffffff16908060040160049054906101000a900463ffffffff16908060040160089054906101000a900463ffffffff16908060050154908060060154905089565b613931600133613aab565b80600260003373ffffffffffffffffffffffffffffffffffffffff1673ffffffffffffffffffffffffffffffffffffffff1681526020019081526020016000209080519060200190613984929190613d65565b507f6398a7c503a960a72b53dd4ccae3dc5c87fc1cdd53e59c7774f9df356cf346fb336040516139b49190614f55565b60405180910390a150565b66038d7ea4c6800081565b600073ffffffffffffffffffffffffffffffffffffffff168173ffffffffffffffffffffffffffffffffffffffff161415613a0457600080fd5b613a0e8282613b8d565b613a4d576040517f08c379a0000000000000000000000000000000000000000000000000000000008152600401613a44906156cd565b60405180910390fd5b60008260000160008373ffffffffffffffffffffffffffffffffffffffff1673ffffffffffffffffffffffffffffffffffffffff16815260200190815260200160002060006101000a81548160ff0219169083151502179055505050565b600073ffffffffffffffffffffffffffffffffffffffff168173ffffffffffffffffffffffffffffffffffffffff161415613ae557600080fd5b613aef8282613b8d565b15613b2f576040517f08c379a0000000000000000000000000000000000000000000000000000000008152600401613b2690615739565b60405180910390fd5b60018260000160008373ffffffffffffffffffffffffffffffffffffffff1673ffffffffffffffffffffffffffffffffffffffff16815260200190815260200160002060006101000a81548160ff0219169083151502179055505050565b60008073ffffffffffffffffffffffffffffffffffffffff168273ffffffffffffffffffffffffffffffffffffffff161415613bc857600080fd5b8260000160008373ffffffffffffffffffffffffffffffffffffffff1673ffffffffffffffffffffffffffffffffffffffff16815260200190815260200160002060009054906101000a900460ff16905092915050565b6000804283604051602001613c3592919061577a565b6040516020818303038152906040528051906020012060001c905066038d7ea4c6800081613c6391906157d1565b905080915050919050565b600073ffffffffffffffffffffffffffffffffffffffff168173ffffffffffffffffffffffffffffffffffffffff161415613ca857600080fd5b8073ffffffffffffffffffffffffffffffffffffffff1660008054906101000a900473ffffffffffffffffffffffffffffffffffffffff1673ffffffffffffffffffffffffffffffffffffffff167f8be0079c531659141344cd1fd0a4f28419497f9722a3daafe3b4186f6b6457e060405160405180910390a3806000806101000a81548173ffffffffffffffffffffffffffffffffffffffff021916908373ffffffffffffffffffffffffffffffffffffffff16021790555050565b828054613d7190614da9565b90600052602060002090601f016020900481019282613d935760008555613dda565b82601f10613dac57805160ff1916838001178555613dda565b82800160010185558215613dda579182015b82811115613dd9578251825591602001919060010190613dbe565b5b509050613de79190613e2b565b5090565b508054613df790614da9565b6000825580601f10613e095750613e28565b601f016020900490600052602060002090810190613e279190613e2b565b5b50565b5b80821115613e44576000816000905550600101613e2c565b5090565b6000604051905090565b600080fd5b600080fd5b600073ffffffffffffffffffffffffffffffffffffffff82169050919050565b6000613e8782613e5c565b9050919050565b613e9781613e7c565b8114613ea257600080fd5b50565b600081359050613eb481613e8e565b92915050565b600060208284031215613ed057613ecf613e52565b5b6000613ede84828501613ea5565b91505092915050565b600080fd5b600080fd5b6000601f19601f8301169050919050565b7f4e487b7100000000000000000000000000000000000000000000000000000000600052604160045260246000fd5b613f3a82613ef1565b810181811067ffffffffffffffff82111715613f5957613f58613f02565b5b80604052505050565b6000613f6c613e48565b9050613f788282613f31565b919050565b600067ffffffffffffffff821115613f9857613f97613f02565b5b613fa182613ef1565b9050602081019050919050565b82818337600083830152505050565b6000613fd0613fcb84613f7d565b613f62565b905082815260208101848484011115613fec57613feb613eec565b5b613ff7848285613fae565b509392505050565b600082601f83011261401457614013613ee7565b5b8135614024848260208601613fbd565b91505092915050565b6000806040838503121561404457614043613e52565b5b600061405285828601613ea5565b925050602083013567ffffffffffffffff81111561407357614072613e57565b5b61407f85828601613fff565b9150509250929050565b600063ffffffff82169050919050565b6140a281614089565b81146140ad57600080fd5b50565b6000813590506140bf81614099565b92915050565b6000819050919050565b6140d8816140c5565b81146140e357600080fd5b50565b6000813590506140f5816140cf565b92915050565b6000806000806080858703121561411557614114613e52565b5b6000614123878288016140b0565b9450506020614134878288016140e6565b9350506040614145878288016140e6565b925050606085013567ffffffffffffffff81111561416657614165613e57565b5b61417287828801613fff565b91505092959194509250565b60006020828403121561419457614193613e52565b5b60006141a2848285016140e6565b91505092915050565b6141b481613e7c565b82525050565b600081519050919050565b600082825260208201905092915050565b60005b838110156141f45780820151818401526020810190506141d9565b83811115614203576000848401525b50505050565b6000614214826141ba565b61421e81856141c5565b935061422e8185602086016141d6565b61423781613ef1565b840191505092915050565b61424b81614089565b82525050565b61425a816140c5565b82525050565b600061012082019050614276600083018c6141ab565b8181036020830152614288818b614209565b9050818103604083015261429c818a614209565b905081810360608301526142b08189614209565b90506142bf6080830188614242565b6142cc60a0830187614242565b6142d960c0830186614242565b6142e660e0830185614251565b6142f4610100830184614251565b9a9950505050505050505050565b6000806040838503121561431957614318613e52565b5b6000614327858286016140e6565b925050602083013567ffffffffffffffff81111561434857614347613e57565b5b61435485828601613fff565b9150509250929050565b600061010082019050614374600083018b6141ab565b8181036020830152614386818a614209565b9050818103604083015261439a8189614209565b90506143a96060830188614251565b6143b66080830187614251565b6143c360a0830186614242565b6143d060c0830185614242565b6143dd60e0830184614242565b9998505050505050505050565b60008060006060848603121561440357614402613e52565b5b6000614411868287016140b0565b9350506020614422868287016140e6565b925050604084013567ffffffffffffffff81111561444357614442613e57565b5b61444f86828701613fff565b9150509250925092565b600080604083850312156144705761446f613e52565b5b600083013567ffffffffffffffff81111561448e5761448d613e57565b5b61449a85828601613fff565b925050602083013567ffffffffffffffff8111156144bb576144ba613e57565b5b6144c785828601613fff565b9150509250929050565b60006020820190506144e66000830184614251565b92915050565b60008115159050919050565b614501816144ec565b82525050565b600060208201905061451c60008301846144f8565b92915050565b6000806040838503121561453957614538613e52565b5b6000614547858286016140e6565b9250506020614558858286016140e6565b9150509250929050565b60008060006060848603121561457b5761457a613e52565b5b6000614589868287016140b0565b935050602061459a868287016140e6565b92505060406145ab868287016140e6565b9150509250925092565b6000806000606084860312156145ce576145cd613e52565b5b60006145dc86828701613ea5565b935050602084013567ffffffffffffffff8111156145fd576145fc613e57565b5b61460986828701613fff565b925050604084013567ffffffffffffffff81111561462a57614629613e57565b5b61463686828701613fff565b9150509250925092565b600060208201905061465560008301846141ab565b92915050565b60006020828403121561467157614670613e52565b5b600082013567ffffffffffffffff81111561468f5761468e613e57565b5b61469b84828501613fff565b91505092915050565b600060208201905081810360008301526146be8184614209565b905092915050565b7f4120636f6e73756d657220686173206265656e2072656d6f7665640000000000600082015250565b60006146fc601b836141c5565b9150614707826146c6565b602082019050919050565b600060408201905061472760008301846141ab565b8181036020830152614738816146ef565b905092915050565b7f41206469737472696275746f7220686173206265656e2061646465642062792060008201527f4f776e6572000000000000000000000000000000000000000000000000000000602082015250565b600061479c6025836141c5565b91506147a782614740565b604082019050919050565b60006040820190506147c760008301846141ab565b81810360208301526147d88161478f565b905092915050565b7f466972737420796f75206d757374207265676973746572206173206120636f6e60008201527f73756d6572200000000000000000000000000000000000000000000000000000602082015250565b600061483c6026836141c5565b9150614847826147e0565b604082019050919050565b6000602082019050818103600083015261486b8161482f565b9050919050565b600081905092915050565b6000614888826141ba565b6148928185614872565b93506148a28185602086016141d6565b80840191505092915050565b60006148ba828461487d565b915081905092915050565b7f546869732072657461696c657220646f65736e2074206861766520746869732060008201527f70726f6475637400000000000000000000000000000000000000000000000000602082015250565b60006149216027836141c5565b915061492c826148c5565b604082019050919050565b6000602082019050818103600083015261495081614914565b9050919050565b7f546869732070726f647563742069732073706f696c6564000000000000000000600082015250565b600061498d6017836141c5565b915061499882614957565b602082019050919050565b600060208201905081810360008301526149bc81614980565b9050919050565b7f546869732072657461696c65722770726f64756374206973206e6f742079657460008201527f2065786869626974656400000000000000000000000000000000000000000000602082015250565b6000614a1f602a836141c5565b9150614a2a826149c3565b604082019050919050565b60006020820190508181036000830152614a4e81614a12565b9050919050565b7f6e656564206d6f72652063617368000000000000000000000000000000000000600082015250565b6000614a8b600e836141c5565b9150614a9682614a55565b602082019050919050565b60006020820190508181036000830152614aba81614a7e565b9050919050565b7f4e487b7100000000000000000000000000000000000000000000000000000000600052601160045260246000fd5b6000614afb826140c5565b9150614b06836140c5565b925082821015614b1957614b18614ac1565b5b828203905092915050565b6000614b2f82614089565b9150614b3a83614089565b925082821015614b4d57614b4c614ac1565b5b828203905092915050565b7f4e6f7420616c6c6f7765642c20796f75277265206e6f7420612072657461696c60008201527f6572000000000000000000000000000000000000000000000000000000000000602082015250565b6000614bb46022836141c5565b9150614bbf82614b58565b604082019050919050565b60006020820190508181036000830152614be381614ba7565b9050919050565b7f54686973206469737472696275746f7220646f65736e2074206861766520746860008201527f69732070726f6475637400000000000000000000000000000000000000000000602082015250565b6000614c46602a836141c5565b9150614c5182614bea565b604082019050919050565b60006020820190508181036000830152614c7581614c39565b9050919050565b7f54686973206469737472696275746f722770726f64756374206973206e6f742060008201527f79657420617661696c61626c6500000000000000000000000000000000000000602082015250565b6000614cd8602d836141c5565b9150614ce382614c7c565b604082019050919050565b60006020820190508181036000830152614d0781614ccb565b9050919050565b7f57726f6e672077656967687420706172616d6574657200000000000000000000600082015250565b6000614d446016836141c5565b9150614d4f82614d0e565b602082019050919050565b60006020820190508181036000830152614d7381614d37565b9050919050565b7f4e487b7100000000000000000000000000000000000000000000000000000000600052602260045260246000fd5b60006002820490506001821680614dc157607f821691505b60208210811415614dd557614dd4614d7a565b5b50919050565b7f4e6f7420616c6c6f7765642c20796f75277265206e6f742061206661726d6572600082015250565b6000614e116020836141c5565b9150614e1c82614ddb565b602082019050919050565b60006020820190508181036000830152614e4081614e04565b9050919050565b6000614e52826140c5565b9150614e5d836140c5565b9250827fffffffffffffffffffffffffffffffffffffffffffffffffffffffffffffffff03821115614e9257614e91614ac1565b5b828201905092915050565b7f596f752061726520616c72656164792073696e67757000000000000000000000600082015250565b6000614ed36016836141c5565b9150614ede82614e9d565b602082019050919050565b60006020820190508181036000830152614f0281614ec6565b9050919050565b7f41206661726d657220686173206265656e207369676e65642075700000000000600082015250565b6000614f3f601b836141c5565b9150614f4a82614f09565b602082019050919050565b6000604082019050614f6a60008301846141ab565b8181036020830152614f7b81614f32565b905092915050565b7f41206469737472696275746f7220686173206265656e2072656d6f7665640000600082015250565b6000614fb9601e836141c5565b9150614fc482614f83565b602082019050919050565b6000604082019050614fe460008301846141ab565b8181036020830152614ff581614fac565b905092915050565b7f57726f6e6720707269636520706172616d657465720000000000000000000000600082015250565b60006150336015836141c5565b915061503e82614ffd565b602082019050919050565b6000602082019050818103600083015261506281615026565b9050919050565b7f49742773206e6f7420796f75722070726f647563740000000000000000000000600082015250565b600061509f6015836141c5565b91506150aa82615069565b602082019050919050565b600060208201905081810360008301526150ce81615092565b9050919050565b7f4e6f7420616c6c6f7765642c20796f75277265206e6f7420612064697374726960008201527f6275746f72000000000000000000000000000000000000000000000000000000602082015250565b60006151316025836141c5565b915061513c826150d5565b604082019050919050565b6000602082019050818103600083015261516081615124565b9050919050565b7f41206469737472696275746f72206861732072656e6f756e6365640000000000600082015250565b600061519d601b836141c5565b91506151a882615167565b602082019050919050565b60006040820190506151c860008301846141ab565b81810360208301526151d981615190565b905092915050565b7f596f752063616e742062757920612070726f6475637420746861742773206e6f60008201527f74206d616e756661637475726564000000000000000000000000000000000000602082015250565b600061523d602e836141c5565b9150615248826151e1565b604082019050919050565b6000602082019050818103600083015261526c81615230565b9050919050565b7f412072657461696c657220686173206265656e2072656d6f7665640000000000600082015250565b60006152a9601b836141c5565b91506152b482615273565b602082019050919050565b60006040820190506152d460008301846141ab565b81810360208301526152e58161529c565b905092915050565b7f4e657720636f6e73756d65720000000000000000000000000000000000000000600082015250565b6000615323600c836141c5565b915061532e826152ed565b602082019050919050565b600060408201905061534e60008301846141ab565b818103602083015261535f81615316565b905092915050565b7f41206661726d6572206861732072656e6f756e63656400000000000000000000600082015250565b600061539d6016836141c5565b91506153a882615367565b602082019050919050565b60006040820190506153c860008301846141ab565b81810360208301526153d981615390565b905092915050565b7f412072657461696c657220686173206265656e206164646564206279204f776e60008201527f6572000000000000000000000000000000000000000000000000000000000000602082015250565b600061543d6022836141c5565b9150615448826153e1565b604082019050919050565b600060408201905061546860008301846141ab565b818103602083015261547981615430565b905092915050565b7f412072657461696c6572206861732072656e6f756e6365640000000000000000600082015250565b60006154b76018836141c5565b91506154c282615481565b602082019050919050565b60006040820190506154e260008301846141ab565b81810360208301526154f3816154aa565b905092915050565b7f596f752061726520616c7265616479207369676e65642d757000000000000000600082015250565b60006155316019836141c5565b915061553c826154fb565b602082019050919050565b6000602082019050818103600083015261556081615524565b9050919050565b7f41206661726d657220686173206265656e2072656d6f76656400000000000000600082015250565b600061559d6019836141c5565b91506155a882615567565b602082019050919050565b60006040820190506155c860008301846141ab565b81810360208301526155d981615590565b905092915050565b7f41206661726d657220686173206265656e206164646564206279204f776e6572600082015250565b60006156176020836141c5565b9150615622826155e1565b602082019050919050565b600060408201905061564260008301846141ab565b81810360208301526156538161560a565b905092915050565b7f546869732061646472657373206973206e6f742072656769737465726564206660008201527f6f72207468697320726f6c650000000000000000000000000000000000000000602082015250565b60006156b7602c836141c5565b91506156c28261565b565b604082019050919050565b600060208201905081810360008301526156e6816156aa565b9050919050565b7f596f7520616c72656164792068617665207468697320726f6c65000000000000600082015250565b6000615723601a836141c5565b915061572e826156ed565b602082019050919050565b6000602082019050818103600083015261575281615716565b9050919050565b6000819050919050565b61577461576f826140c5565b615759565b82525050565b60006157868285615763565b602082019150615796828461487d565b91508190509392505050565b7f4e487b7100000000000000000000000000000000000000000000000000000000600052601260045260246000fd5b60006157dc826140c5565b91506157e7836140c5565b9250826157f7576157f66157a2565b5b82820690509291505056fea2646970667358221220554e9a4e346d8e01c8756f9e2e725392bb06abbebf0ff3c464d6ab009170a27c64736f6c63430008090033",
  "linkReferences": {},
  "deployedLinkReferences": {}
}